:1000000012C02CC02BC02AC029C028C027C026C0BF
:1000100025C024C023C022C021C020C01FC01EC0D4
:100020001DC01CC01BC011241FBECFE5D4E0DEBF25
:10003000CDBF13E0A0E6B0E0EEE4F8E002C005902A
:100040000D92A036B107D9F723E0A0E6B3E001C0D6
:100050001D92AD3FB207E1F7DED3F7C3D1CF8032B7
:1000600029F410926303109262030895813239F4E7
:1000700081E090E09093630380936203089582325D
:1000800039F482E090E090936303809362030895D3
:10009000833239F483E090E09093630380936203AA
:1000A0000895843239F484E090E090936303809360
:1000B00062030895853239F485E090E090936303FC
:1000C000809362030895863239F486E090E090933D
:1000D0006303809362030895883239F488E090E0E6
:1000E00090936303809362030895893239F489E021
:1000F00090E0909363038093620308958A3239F409
:100100008AE090E0909363038093620308958B32BA
:1001100039F48BE090E09093630380936203089539
:100120008C3239F48CE090E0909363038093620307
:1001300008958D3239F48DE090E0909363038093BD
:10014000620308958E3239F48EE090E09093630359
:100150008093620308958F3239F48FE090E090939A
:100160006303809362030895803339F480E190E063
:1001700090936303809362030895813339F481E19E
:1001800090E090936303809362030895823339F47F
:1001900082E190E090936303809362030895833338
:1001A00039F483E190E090936303809362030895B0
:1001B000843339F484E190E0909363038093620385
:1001C0000895853339F485E190E09093630380933B
:1001D00062030895863339F486E190E090936303D7
:1001E000809362030895873339F487E190E0909318
:1001F0006303809362030895883339F488E190E0C3
:1002000090936303809362030895893339F489E1FD
:1002100090E0909363038093620308958A3339F4E6
:100220008AE190E0909363038093620308958B3397
:1002300039F48BE190E09093630380936203089517
:100240008C3339F48CE190E09093630380936203E4
:1002500008958D3339F48DE190E09093630380939A
:10026000620308958E3339F48EE190E09093630336
:100270008093620308958F3339F48FE190E0909377
:100280006303809362030895803439F480E290E040
:1002900090936303809362030895813439F481E27B
:1002A00090E090936303809362030895823439F45D
:1002B00082E290E090936303809362030895833415
:1002C00039F483E290E0909363038093620308958E
:1002D000843439F484E290E0909363038093620362
:1002E0000895853439F485E290E090936303809318
:1002F00062030895863439F486E290E090936303B4
:10030000809362030895873439F487E290E09093F4
:100310006303809362030895883439F488E290E09F
:1003200090936303809362030895893439F489E2DA
:1003300090E0909363038093620308958A3439F4C4
:100340008AE290E0909363038093620308958B3474
:1003500039F48BE290E090936303809362030895F5
:100360008C3439F48CE290E09093630380936203C1
:1003700008958D3439F48DE290E090936303809377
:10038000620308958E3439F48EE290E09093630313
:100390008093620308958F3439F48FE290E0909354
:1003A0006303809362030895803539F480E390E01D
:1003B00090936303809362030895813539F481E358
:1003C00090E090936303809362030895823539F43B
:1003D00082E390E0909363038093620308958335F2
:1003E00039F483E390E0909363038093620308956C
:1003F000843539F484E390E090936303809362033F
:100400000895853539F485E390E0909363038093F4
:1004100062030895863539F486E390E09093630390
:10042000809362030895873539F487E390E09093D1
:100430006303809362030895883539F488E390E07C
:1004400090936303809362030895893539F489E3B7
:1004500090E0909363038093620308958A3539F4A2
:100460008AE390E0909363038093620308958B3551
:1004700039F48BE390E090936303809362030895D3
:100480008D3539F48DE390E090936303809362039C
:1004900008958E3539F48EE390E090936303809352
:1004A000620308958F3539F48FE390E090936303EE
:1004B000809362030895813639F481E490E090934B
:1004C0006303809362030895823639F482E490E0F6
:1004D00090936303809362030895833639F483E431
:1004E00090E090936303809362030895843639F417
:1004F00084E490E0909363038093620308958536CB
:1005000039F485E490E09093630380936203089547
:10051000863639F486E490E0909363038093620317
:100520000895873639F487E490E0909363038093CD
:1005300062030895883639F488E490E09093630369
:10054000809362030895893639F489E490E09093AA
:1005500063038093620308958A3639F48AE490E055
:10056000909363038093620308958B3639F48BE490
:1005700090E0909363038093620308958C3639F47E
:100580008CE490E0909363038093620308958D362A
:1005900039F48DE490E090936303809362030895AF
:1005A0008E3639F48EE490E0909363038093620377
:1005B00008958F3639F48FE490E09093630380932D
:1005C00062030895803739F480E590E090936303E7
:1005D000809362030895813739F481E590E0909328
:1005E0006303809362030895823739F482E590E0D3
:1005F00090936303809362030895833739F483E50E
:1006000090E090936303809362030895843739F4F4
:1006100084E590E0909363038093620308958537A7
:1006200039F485E590E09093630380936203089525
:10063000863739F486E590E09093630380936203F4
:100640000895873739F487E590E0909363038093AA
:1006500062030895883739F488E590E09093630346
:10066000809362030895893739F489E590E0909387
:1006700063038093620308958A3739F48AE590E032
:10068000909363038093620308958B3739F48BE56D
:1006900090E0909363038093620308958C3739F45C
:1006A0008CE590E0909363038093620308958D3707
:1006B00039F48DE590E0909363038093620308958D
:1006C0008E3731F48EE590E090936303809362035C
:1006D0000895A89AA8980895CF93DF93FADFC0E011
:1006E000D0E080916003909161030C2E02C095953B
:1006F00087950A94E2F780FF02C0A99A01C0A998E1
:10070000E8DF2196C730D10561F7DF91CF910895D9
:10071000AA98AA9A08958F929F92AF92BF92CF9271
:10072000DF92EF92FF920F931F93CF93DF930F2EE1
:10073000F4E7CF2EF3E0DF2EF02D0F2EF4EEAF2EE8
:10074000F3E0BF2EF02D812C912CEE24E394F12CBC
:1007500024C0F801819191918F018095909590939B
:10076000610380936003B8DFC7010C2E02C0880FBD
:10077000991F0A94E2F788BBCBDF89EF90E00197DD
:10078000F1F700C000002196C730D10511F790E1C4
:10079000C90ED11CCA14DB0421F08601C82DD92D45
:1007A000D8CFDF91CF911F910F91FF90EF90DF9005
:1007B000CF90BF90AF909F908F9008950F931F930D
:1007C000CF93DF93C4E6D3E044E753E064E773E0FC
:1007D00000E010E00DC02D9130E02193319301969F
:1007E00088309105C1F7405F5F4FC617D70771F09A
:1007F000A991B991AA0FBB1FAA0FBB1FAA0FBB1FBC
:10080000A959BF4FFA01802F912FE5CFDF91CF91EA
:100810001F910F9108958FEF84BB87BB809160007B
:10082000882381F004E613E0C1E6D0E018DC809173
:10083000620390916303F801819391938F018991F1
:0E0840008111F4CFBBDF67DFFECFF894FFCF4E
:10084E0050524146554C00000000000000000000D0
:10085E00007A00000000000070007000000000141C
:10086E003E143E14000000102A3E2A0400000064CC
:10087E0008102600000000142A14020000000000D8
:10088E0000700000000000003C420000000000006C
:10089E00423C0000000000002A1C2A000000000854
:1008AE00083E0808000000000106040000000008D1
:1008BE000808080000000000060600000000000402
:1008CE0008102000000000003C423C000000000028
:1008DE00227E020000000022464A32000000004440
:1008EE0052526C0000000018287E080000000074B0
:1008FE0052524C000000003C52520C0000000040CE
:10090E00465860000000002C52522C0000000030AF
:10091E004A4A3C000000000036360000000000018C
:10092E0036340000000000000814220000000014FD
:10093E00141414000000000022140800000000002F
:10094E00204A30000000003C425A38000000003EB1
:10095E0048483E000000007E52522C000000003C31
:10096E00424224000000007E42423C000000007E15
:10097E00525242000000007E505040000000003CE9
:10098E00424A2E000000007E10107E000000000083
:10099E00427E42000000000402027C000000007E45
:1009AE00182442000000007E020202000000007EB9
:1009BE0030307E000000007E300C7E000000003CD7
:1009CE0042423C000000007E484830000000003CDF
:1009DE0046423D000000007E484C320000000024DC
:1009EE00524A240000000000407E40000000007CBF
:1009FE0002027C0000000078060678000000007EEF
:100A0E000C0C7E0000000066181866000000000046
:100A1E00700E7000000000464A5262000000000096
:100A2E007E4242000000002010080400000000007A
:100A3E0042427E0000000000204020000000000224
:100A4E000202020000000000402000000000000C26
:100A5E0012141E000000007E12120C000000000C8A
:100A6E00121200000000000C12127E000000000C9A
:100A7E00161A0800000000083E4820000000000A78
:100A8E00151519000000007E10100E000000000069
:100A9E00125E02000000000002015E000000007EF7
:100AAE000814020000000000427E02000000001E3A
:100ABE0008180E000000001E10100E000000000CA2
:100ACE0012120C000000001F12120C000000000C8D
:100ADE0012121F000000001E101008000000000A75
:100AEE001A161400000000107C1202000000001CF8
:100AFE0002021E00000000001C021C000000001E6E
:100B0E0006061E00000000120C0C12000000001859
:100B1E0005021C0000000012161A12000000000050
:100B2E00103C420000000000007E000000000000AB
:100B3E00423C100000000020402040000000000059
:00000001FF
