:100000000C942A000C9447000C9447000C94470071
:100010000C9447000C9447000C9447000C94470044
:100020000C9447000C9447000C9447000C94470034
:100030000C9447000C9447000C9447000C94470024
:100040000C9447000C9447000C9447000C94470014
:100050000C94470011241FBECFE5D4E0DEBFCDBF16
:1000600013E0A0E6B0E0E4E4F9E002C005900D92F0
:10007000A835B107D9F723E0A8E5B3E001C01D9288
:10008000A53FB207E1F70E94DC030C94A0040C9496
:100090000000803229F410925B0310925A030895F5
:1000A000813219F481E090E0C1C1823219F482E01A
:1000B00090E0BCC1833219F483E090E0B7C1843290
:1000C00019F484E090E0B2C1853219F485E090E043
:1000D000ADC1863219F486E090E0A8C1883219F4E7
:1000E00088E090E0A3C1893219F489E090E09EC1D4
:1000F0008A3219F48AE090E099C18B3219F48BE0CE
:1001000090E094C18C3219F48CE090E08FC18D3274
:1001100019F48DE090E08AC18E3219F48EE090E0FF
:1001200085C18F3219F48FE090E080C1803319F4DB
:1001300080E190E07BC1813319F481E190E076C1E8
:10014000823319F482E190E071C1833319F483E1C1
:1001500090E06CC1843319F484E190E067C1853389
:1001600019F485E190E062C1863319F486E190E0EC
:100170005DC1873319F487E190E058C1883319F4E1
:1001800088E190E053C1893319F489E190E04EC1D0
:100190008A3319F48AE190E049C18B3319F48BE179
:1001A00090E044C18C3319F48CE190E03FC18D3371
:1001B00019F48DE190E03AC18E3319F48EE190E0AC
:1001C00035C18F3319F48FE190E030C1803419F4D8
:1001D00080E290E02BC1813419F481E290E026C1E5
:1001E000823419F482E290E021C1833419F483E26D
:1001F00090E01CC1843419F484E290E017C1853486
:1002000019F485E290E012C1863419F486E290E098
:100210000DC1873419F487E290E008C1883419F4DD
:1002200088E290E003C1893419F489E290E0FEC0CD
:100230008A3419F48AE290E0F9C08B3419F48BE225
:1002400090E0F4C08C3419F48CE290E0EFC08D346F
:1002500019F48DE290E0EAC08E3419F48EE290E059
:10026000E5C08F3419F48FE290E0E0C0803519F4D6
:1002700080E390E0DBC0813519F481E390E0D6C0E3
:10028000823519F482E390E0D1C0833519F483E319
:1002900090E0CCC0843519F484E390E0C7C0853584
:1002A00019F485E390E0C2C0863519F486E390E046
:1002B000BDC0873519F487E390E0B8C0883519F4DC
:1002C00088E390E0B3C0893519F489E390E0AEC0CB
:1002D0008A3519F48AE390E0A9C08B3519F48BE3D1
:1002E00090E0A4C08D3519F48DE390E09FC08E3569
:1002F00019F48EE390E09AC08F3519F48FE390E003
:1003000095C0813619F481E490E090C0823619F4EA
:1003100082E490E08BC0833619F483E490E086C0D9
:10032000843619F484E490E081C0853619F485E4BC
:1003300090E07CC0863619F486E490E077C087367A
:1003400019F487E490E072C0883619F488E490E0EC
:100350006DC0893619F489E490E068C08A3619F4D2
:100360008AE490E063C08B3619F48BE490E05EC0C1
:100370008C3619F48CE490E059C08D3619F48DE474
:1003800090E054C08E3619F48EE490E04FC08F3662
:1003900019F48FE490E04AC0803719F480E590E0CA
:1003A00045C0813719F481E590E040C0823719F4E7
:1003B00082E590E03BC0833719F483E590E036C0D6
:1003C000843719F484E590E031C0853719F485E568
:1003D00090E02CC0863719F486E590E027C0873777
:1003E00019F487E590E022C0883719F488E590E099
:1003F0001DC0893719F489E590E018C08A3719F4CF
:100400008AE590E013C08B3719F48BE590E00EC0BD
:100410008C3719F48CE590E009C08D3719F48DE51F
:1004200090E004C08E3731F48EE590E090935B034A
:1004300080935A030895A89AA8980895CF93DF93BC
:100440000E941B02C0E0D0E08091580390915903B4
:100450000C2E02C0959587950A94E2F780FF02C0A2
:10046000A99A01C0A9980E941B022196C730D10504
:1004700059F7DF91CF910895AA98AA9A0895EF921B
:10048000FF920F931F93CF93DF93CCE6D3E000E06E
:1004900010E0EE24E394F12C888199818095909569
:1004A00090935903809358030E941E02888999896A
:1004B0008095909590935903809358030E941E0253
:1004C00088A199A1809590959093590380935803A2
:1004D0000E941E0288A999A980959095909359032E
:1004E000809358030E941E02FE01E05CFF4F808152
:1004F00091818095909590935903809358030E9421
:100500001E02FE01E05BFF4F8081918180959095F6
:1005100090935903809358030E941E02FE01E05AF3
:10052000FF4F80819181809590959093590380939E
:1005300058030E941E02FE01E059FF4F8081918105
:100540008095909590935903809358030E941E02C2
:10055000C701002E01C0880F0A94EAF788BB0E94E9
:100560003C0287EC90E00197F1F700C000000F5FBC
:100570001F4F22960730110509F08ECFDF91CF91E2
:100580001F910F91FF90EF900895ACE6B3E040917A
:100590005C0350915D03F3E0440F551FFA95E1F7BA
:1005A00080E090E0FC01E40FF51FE05AFF4F20814E
:1005B00030E02D933D9301968830910599F7ACE793
:1005C000B3E040915E0350915F03E3E0440F551F99
:1005D000EA95E1F780E090E0FC01E40FF51FE05AB6
:1005E000FF4F208130E02D933D9301968830910597
:1005F00099F7ACE8B3E0409160035091610373E078
:10060000440F551F7A95E1F780E090E0FC01E40F7C
:10061000F51FE05AFF4F208130E02D933D93019666
:100620008830910599F7ACE9B3E0409162035091AD
:10063000630363E0440F551F6A95E1F780E090E0A3
:10064000FC01E40FF51FE05AFF4F208130E02D93AD
:100650003D9301968830910599F7ACEAB3E040915B
:1006600064035091650333E0440F551F3A95E1F759
:1006700080E090E0FC01E40FF51FE05AFF4F20817D
:1006800030E02D933D9301968830910599F7ACEBBE
:10069000B3E0409166035091670323E0440F551F78
:1006A0002A95E1F780E090E0FC01E40FF51FE05AA5
:1006B000FF4F208130E02D933D93019688309105C6
:1006C00099F7ACECB3E0409168035091690393E073
:1006D000440F551F9A95E1F780E090E0FC01E40F8C
:1006E000F51FE05AFF4F208130E02D933D93019696
:1006F0008830910599F7ACEDB3E040916A035091D1
:100700006B0383E0440F551F8A95E1F780E090E08A
:10071000FC01E40FF51FE05AFF4F208130E02D93DC
:100720003D9301968830910599F70895CF93DF9313
:1007300010925B0310925A03CCE5D3E01982188221
:100740001B821A828CE40E94490080915A03909186
:100750005B039D838C8385E50E94490080915A0349
:1007600090915B039F838E8386E40E944900809171
:100770005A0390915B039987888781E40E9449001E
:1007800080915A0390915B039B878A8782E50E9440
:10079000490080915A0390915B039D878C8780E587
:1007A0000E94490080915A0390915B039F878E8736
:1007B000DF91CF910C94C5028FEF84BB87BB0E9461
:1007C00096030E943F02FDCF0F931F93CF93DF93B9
:1007D0000CEE13E0F80181810E944900CCE5D3E0E2
:1007E00080915A0390915B0399838883F8018281F9
:1007F0000E94490080915A0390915B039B838A83F6
:10080000F80183810E94490080915A0390915B0313
:100810009D838C83F80184810E94490080915A0352
:1008200090915B039F838E83F80185810E9449002C
:1008300080915A0390915B0399878887F80186819C
:100840000E94490080915A0390915B039B878A879D
:10085000F80187810E94490080915A0390915B03BF
:100860009D878C87F80180850E94490080915A03FA
:1008700090915B039F878E87DF91CF911F910F919E
:100880000C94C5020F931F93CF93DF930CEE13E0EC
:10089000F80180810E944900CCE5D3E080915A03A1
:1008A00090915B0399838883F80181810E944900BC
:1008B00080915A0390915B039B838A83F801828124
:1008C0000E94490080915A0390915B039D838C8321
:1008D000F80183810E94490080915A0390915B0343
:1008E0009F838E83F80184810E94490080915A037E
:1008F00090915B0399878887F80185810E94490060
:1009000080915A0390915B039B878A87F8018681C7
:100910000E94490080915A0390915B039D878C87C8
:10092000F80187810E94490080915A0390915B03EE
:100930009F878E87DF91CF911F910F910C94C502F5
:04094000F894FFCF59
:10094400000000000000000000007A000000000029
:100954000070007000000000143E143E14000000FB
:10096400102A3E2A0400000064081026000000003B
:10097400142A1402000000000000700000000000AF
:10098400003C42000000000000423C000000000067
:10099400002A1C2A0000000008083E080800000085
:1009A4000001060400000000080808080000000018
:1009B40000060600000000000408102000000000EB
:1009C400003C423C0000000000227E0200000000C7
:1009D40022464A32000000004452526C00000000DB
:1009E40018287E08000000007452524C00000000D9
:1009F4003C52520C000000004046586000000000C9
:100A04002C52522C00000000304A4A3C00000000E6
:100A140000363600000000000136340000000000FB
:100A24000008142200000000141414140000000034
:100A3400002214080000000000204A3000000000DA
:100A44003C425A38000000003E48483E0000000086
:100A54007E52522C000000003C4242240000000060
:100A64007E42423C000000007E52524200000000E0
:100A74007E505040000000003C424A2E000000001E
:100A84007E10107E0000000000427E420000000044
:100A94000402027C000000007E18244200000000D2
:100AA4007E020202000000007E30307E0000000062
:100AB4007E300C7E000000003C42423C00000000FE
:100AC4007E484830000000003C46423D00000000E3
:100AD4007E484C320000000024524A2400000000EA
:100AE40000407E40000000007C02027C0000000008
:100AF40078060678000000007E0C0C7E00000000E2
:100B0400661818660000000000700E7000000000F7
:100B1400464A526200000000007E4242000000008B
:100B240020100804000000000042427E0000000083
:100B34000020402000000000020202020000000029
:100B440000402000000000000C12141E00000000F1
:100B54007E12120C000000000C12120000000000B3
:100B64000C12127E000000000C161A08000000008F
:100B7400083E4820000000000A1515190000000076
:100B84007E10100E0000000000125E020000000043
:100B94000002015E000000007E0814020000000054
:100BA40000427E02000000001E08180E0000000033
:100BB4001E10100E000000000C12120C00000000A9
:100BC4001F12120C000000000C12121F0000000083
:100BD4001E101008000000000A1A1614000000007D
:100BE400107C1202000000001C02021E0000000023
:100BF400001C021C000000001E06061E000000006F
:100C0400120C0C12000000001805021C0000000069
:100C140012161A120000000000103C4200000000EE
:100C240000007E000000000000423C1000000000B4
:080C34002040204000000000F8
:00000001FF
